:020000040800F2
:1000000078060020F9010008A93A0008F513000855
:10001000A53A0008B5020008BD3A0008000000003B
:10002000000000000000000000000000B13A0008DD
:10003000B902000800000000AD3A0008B53A000817
:10004000130200081302000813020008130200083C
:10005000130200081302000813020008130200082C
:10006000130200081302000813020008130200081C
:10007000130200081302000813020008130200080C
:1000800013020008130200081302000813020008FC
:1000900013020008130200081302000813020008EC
:1000A00013020008130200081302000813020008DC
:1000B00013020008130200081302000813020008CC
:1000C00013020008130200081302000813020008BC
:1000D00013020008130200081302000813020008AC
:1000E000130200081302000813020008130200089C
:1000F000130200081302000813020008130200088C
:10010000130200081302000813020008130200087B
:10011000130200081302000813020008130200086B
:10012000130200081302000813020008130200085B
:1001300000F002F800F050F814A696E8000CB24463
:10014000B344DA4501D100F047F8BAE80F000FA632
:1001500096E83000A5EB040504EB0607AAEB0704BC
:10016000A7F101074FEA15154FEA3414A4F1010471
:10017000AC4201D300F030F813F0010F18BFFB1AA6
:1001800043F0010300F001F8DBE7184704B6000074
:1001900024B60000103A24BF78C878C1FAD85207B4
:1001A00024BF30C830C144BF04680C6070470000F1
:1001B000704700000023002400250026103A28BFC5
:1001C00078C1FBD8520728BF30C148BF0B607047C9
:1001D0001FB51FBD10B510BD00F031F81146FFF777
:1001E000F7FF03F06DFC00F04FF803B4FFF7F2FFE8
:1001F00003BC00F057F80000094880470948004751
:10020000FEE7FEE7FEE7FEE7FEE7FEE7FEE7FEE7C6
:10021000FEE7FEE704480549054A064B7047000023
:10022000B93A000831010008780000207806002063
:1002300078020020780200207047704770477546AA
:1002400000F02CF8AE4605006946534620F0070042
:10025000854618B020B5FFF7DDFFBDE820404FF020
:1002600000064FF000074FF000084FF0000BAC46BF
:10027000ACE8C009ACE8C009ACE8C009ACE8C0090A
:1002800021F007018D46704710B50446AFF300809A
:100290002046BDE81040FFF7A8BF000000487047A7
:1002A0001000002001491820ABBEFEE72600020026
:1002B00070470000FEE70000704700002DE9F043A2
:1002C00081B01C464FF6FF780B4615460E46074692
:1002D000CDF8008000F054FB384631463A462346BC
:1002E000CDF8008000F04CFB611E781C89B248F20A
:1002F000104880B22A460B46CDF8008000F040FB43
:1003000044F20829384621462A462346CDF8009073
:1003100000F036FB681E711C80B289B2024623468B
:10032000CDF8008000F02CFB284631462A462346B3
:10033000CDF8009000F024FB01B0BDE8F083000090
:100340002DE9F04F95B01C461E9B15461A78149166
:10035000002A019000F01083019F07E0029B139F89
:10036000023310371A78002A00F0068350B2B0F139
:10037000FF3F09DD0D2A40F0DD811498019F103008
:1003800014900133EEE700BF07F108000490781CD9
:100390000590B81C0690BE46F81C07900EF10E00A2
:1003A0000EF10D0680B2029307F1040907F1050A68
:1003B00007F1060B07F1070807F1090C07F10A021C
:1003C00007F10B030C371190B0B21090B8B20F9038
:1003D00098B20E9090B20D901FFA8CF00C901FFA0C
:1003E00088F00B901FFA8BF00A901FFA8AF00990A0
:1003F0001FFA89F008900798CDF84CE080B207907A
:1004000006980EF10F0E80B2069005984BF2E56843
:1004100080B21FFA8EF105900020C0F600081291FC
:1004200006E000BF039808F122080130322895D079
:100430004BF2E561029A039000EB0010C0F6000158
:1004400011F8101012789142ECD14BF2E561C0F630
:10045000000101EB40000299407849788842E1D1DF
:100460004FF0000907E000BF00F0E2FA09F10109CE
:10047000B9F1100FD6D008EB490A9AF802B01499D6
:100480004FFA8BF0A54201EB09073BD1B0F1FF3FDA
:1004900040F3C6805FEA4B6000F1CC805FEA8B607E
:1004A00000F1D1805FEACB6000F1D6805FEA0B708B
:1004B00000F1DB805FEA4B7000F1E0805FEA8B7057
:1004C00000F1E5805FEACB7040F0EA809AF90360C2
:1004D000B6F1FF3F40F3EF80F6B2700600F1F58011
:1004E000B00600F1FA80F00600F1FF80300700F15D
:1004F0000481700700F10981B00700F10E81F00757
:10050000B4D012E12A46B0F1FF3FC8BF224613988B
:10051000BFB280B2394600F08BFA5FEA4B600598B3
:10052000394654BF22462A4600F082FA5FEA8B60C1
:100530000698394654BF22462A4600F079FA5FEA07
:10054000CB600798394654BF22462A4600F070FA1D
:100550005FEA0B700898394654BF22462A4600F0DD
:1005600067FA5FEA4B700998394654BF22462A461B
:1005700000F05EFA5FEA8B700A98394654BF224653
:100580002A4600F055FA5FEACB700B98394614BF43
:100590002A46224600F04CFA9AF903602246002EC1
:1005A00048BF2A460498394680B200F041FA7006E6
:1005B0000C98394654BF22462A4600F039FAF6B262
:1005C000B0060D98394654BF22462A4600F030FA4C
:1005D000F0060E98394654BF22462A4600F028FA03
:1005E00030070F98394654BF22462A4600F020FAB9
:1005F00070071098394654BF22462A4600F018FA70
:10060000B0071198394654BF22462A4600F010FA26
:10061000F007129839460CBF22462A4624E700BF4D
:100620001398B9B280B22A4600F002FA5FEA4B6032
:100630007FF534AF0598B9B22A4600F0F9F95FEAC0
:100640008B607FF52FAF0698B9B22A4600F0F0F91B
:100650005FEACB607FF52AAF0798B9B22A4600F06F
:10066000E7F95FEA0B707FF525AF0898B9B22A4623
:1006700000F0DEF95FEA4B707FF520AF0998B9B260
:100680002A4600F0D5F95FEA8B707FF51BAF0A9818
:10069000B9B22A4600F0CCF95FEACB703FF416AF4E
:1006A0000B98B9B22A4600F0C3F99AF90360B6F183
:1006B000FF3F3FF711AF0498B9B280B22A4600F06D
:1006C000B7F9F6B270067FF50BAF0C98B9B22A46AF
:1006D00000F0AEF9B0067FF506AF0D98B9B22A4624
:1006E00000F0A6F9F0067FF501AF0E98B9B22A46E0
:1006F00000F09EF930077FF5FCAE0F98B9B22A469C
:1007000000F096F970077FF5F7AE1098B9B22A4657
:1007100000F08EF9B0077FF5F2AE1198B9B22A4613
:1007200000F086F9F0073FF4A1AE1298B9B22A465C
:100730009AE600BF4FF60060C0F20F00029300EB94
:10074000021100F5F873202A4FF0000088BF01EA7B
:100750000300A54207F10102139740F09180129225
:1007600043F63242F91DC0F60002BE1D02EB00083E
:1007700088B27B1D1190B0B207F1040A109098B2B4
:1007800007F1020C07F1030E0F901FFA8AF04FF0E9
:1007900000090E901FFA8EF01FFA8CF70D9005E0FD
:1007A00009F10109B9F1100F00F0E18018F90960B1
:1007B0001498B6F1FF3F00EB090A17DD5FFA86FBDC
:1007C0005FEA4B601ED45FEA8B6025D45FEACB60A2
:1007D0002BD45FEA0B7031D45FEA4B7037D45FEAF9
:1007E0008B703DD45FEACB70DAD042E013981FFAE9
:1007F0008AF180B22A4600F01BF95FFA86FB5FEAB5
:100800004B60E0D512981FFA8AF180B22A4600F0B8
:100810000FF95FEA8B60D9D51FFA8AF138462A466C
:1008200000F006F95FEACB60D3D50D981FFA8AF184
:100830002A4600F0FDF85FEA0B70CDD50E981FFA3E
:100840008AF12A4600F0F4F85FEA4B70C7D50F989A
:100850001FFA8AF12A4600F0EBF85FEA8B70C1D5E7
:1008600010981FFA8AF12A4600F0E2F85FEACB708E
:1008700096D011981FFA8AF12A4600F0D9F88FE72E
:1008800043F63241C0F60001084407F1020E12900F
:1008900090B207F1030911901FFA8EF03B1D1090E2
:1008A0001FFA89F007F10508BE1D07F1070C0F902C
:1008B00098B24FF0000A0E901FFA88F0B7B21FFAF4
:1008C0008CF80D901298224610F90A601498002EA8
:1008D000504448BF2A461FFA80F91398494680B20F
:1008E00000F0A6F870061198494654BF22462A46E1
:1008F00000F09EF85FFA86FB5FEA8B60109849462D
:1009000054BF22462A4600F093F85FEACB600F9866
:10091000494654BF22462A4600F08AF85FEA0B7027
:100920000E98494654BF22462A4600F081F85FEAF5
:100930004B700D98494654BF22462A4600F078F87D
:100940005FEA8B703846494654BF22462A4600F07B
:100950006FF85FEACB70404649460CBF22462A46F4
:1009600000F066F80AF1010ABAF1100FAAD1139F3C
:10097000029B08370133F5E415B0BDE8F08F0000A5
:100980002DE9F04F81B01E4617460C46054603F090
:1009900085F87A1B1046A6EB040148BF5042B2F11D
:1009A000FF3F4FF0FF3BC8BF4FF0010B00290B4644
:1009B0004FF0FF3748BF4B420A9AB1F1FF3F4FEA71
:1009C0004001C8BF012798424FEA43098A46009771
:1009D00018D9A9EB000700F1010800BFA8B2A1B225
:1009E00000F026F80A9AB7F1FF3F4F440098C8BFBD
:1009F0000444C8BFA7EB0A07B8F101085D44EDD174
:100A000013E000BFCF1A5E1CA8B2A1B200F010F82C
:100A1000B7F1FF3F5744C8BF5D44C8BFA7EB090704
:100A200000980A9A013E0444EED101B0BDE8F08F6F
:100A300010B51446421C4B1C92B29BB202F06AFDE8
:100A40002046BDE8104000F0E5BC0000002A08BFC9
:100A500070472DE9F04F81B08946D9B1DDF8288083
:100A60009B4603EB020A00BF851E1FFA8BF64F461A
:100A7000444600BF35F8022FA0B2314600F0BCFC5E
:100A8000013F04F10104F5D10BF1010BD34505F150
:100A90000200E9D101B0BDE8F04F7047B0B504469F
:100AA00000F00AF9054640F20000C2F200000078AA
:100AB000611C18BF044400BF00F0FEF8401BA042B8
:100AC000FAD3B0BD2DE9F04F82B00E68002E00F0D1
:100AD000E980A0F1804241F6004540F20043A2F5D2
:100AE0008432C4F201050624C4F201034FEAB2279E
:100AF000A84208BF05244FF0000E4FF001080F2553
:100B00004FF0000A4FF0000B052F38BF4FEAB22418
:100B1000009408E00E680AF1010A36FA0AF20EF1B2
:100B2000040E00F0BF8008FA0AFC16EA0C09F1D0A6
:100B30004E684FF6FF72C1F21002964212DC122E7E
:100B400056D8DFE806F0350B4D49555555555555E6
:100B50005555555555555545510000BFD1F80CB068
:100B600046E000BF4FF6FF72C1F2210296420FDC51
:100B70000022C1F2110296421AD00022C1F21202E2
:100B8000964215D00022C1F22102964210D02FE0E9
:100B90000022C1F2220296420AD00022C1F23102A2
:100BA000964205D00022C1F23202964220D100BF07
:100BB0008A684AB1012A14BFC0F814C0C0F810C036
:100BC0004FF0080B14E000BF4FF0040B10E000BF23
:100BD000CA6802F1040B0BE04FF0000B08E000BF05
:100BE000CA6802F1080B03E0CA6802F10C0B00BFEF
:100BF00002467446B9F5807F24BF0432203C166853
:100C000005FA04F726EA07070BFA04F637431760DC
:100C1000CA79D2067FF57EAF41F21807C4F2020707
:100C20003A684FF6084542F001023A603A68CFF65A
:100C3000FF7502F001020192019A2AF003021A44A0
:100C40000F2457590EF00C06B440A743009C04FA39
:100C500006F6374357514E6840F20C44F2029A6848
:100C600054BF22EA090242EA0902C4F201049A606E
:100C70002268B70254BF22EA090242EA090222604E
:100C80005A68B70354BF22EA090242EA09025A60CD
:100C90000F251A68F70354BF22EA090242EA090243
:100CA0001A6037E702B0BDE8F08F0000002A08BFE5
:100CB000090401617047000040F27000C2F20000B8
:100CC0000068704740F2000040F27001C2F200007C
:100CD000C2F2000100780A68104408607047000002
:100CE00080B542F20000C4F20200016841F0100138
:100CF0000160032000F07AF80F2000F005F800F002
:100D000027F8002080BD000070B540F20006C2F256
:100D1000000640F208013278C2F200014FF47A7303
:100D20000968B3FBF2F20446B1FBF2F1084600F0A9
:100D30004BFB0F2C4FF0010508D838B94FF0FF30AE
:100D400021460022002500F025F87460284670BD79
:100D500082B041F21800C4F202000168022241F0A0
:100D600001010160016801F00101019101994168EF
:100D700041F080514160406800F080500090009840
:100D80000420C4F20100016862F31A61016002B03C
:100D90007047000010B54EF60C5CCEF2000CDCF88B
:100DA0000030C3F3022E8EF00704042C28BF042465
:100DB000BEF103034FF0FF3E0EFA04F438BF0023E8
:100DC000A14399400EFA03F39A43114300F00F0236
:100DD00000F160430901043A03F5644362440028CA
:100DE00048BF02F10C03197010BD00004EF60C5103
:100DF000CEF200010A684FF6FF031A4060F30A22A0
:100E000042F0806040F0FD7008607047002804BF29
:100E1000012070472DE9F04381B042F20008C4F28E
:100E200002080446D8F800000D4600F00700814291
:100E30000CD9D8F8000020F007002843C8F80000BB
:100E4000D8F8000000F00700A8426CD1206841F2F9
:100E500004098107C4F2020917D5410705D5D9F85D
:100E6000001041F4E061C9F80010010705D5D9F878
:100E7000001041F46051C9F80010D9F80010A268C0
:100E800021F0F0011143C9F80010C00742D1D8F891
:100E9000000000F0070085420CD2D8F8000020F0D6
:100EA00007002843C8F80000D8F8000000F0070049
:100EB000A84238D12068410707D5D9F80010E26868
:100EC00021F4E0611143C9F80010000708D5D9F8F2
:100ED0000000216920F4605040EAC100C9F8000018
:100EE000D9F8002002F00C00082841F20020C0F2DE
:100EF0007A004DD144F22323C2F38341C0F60003AC
:100F0000595CD20338D440F60010C0F23D0048438B
:100F10003EE000BF606859F8041C022808D0012890
:100F200026D1890306D4012001B0BDE8F08300BFBB
:100F30008901F8D5D9F8001021F003010843C9F858
:100F40000000FFF7B9FE064641F28837D9F80000E5
:100F5000616800F00C00B0EB810F98D0FFF7ACFE99
:100F6000801BB842F2D9032001B0BDE8F08300BF76
:100F70008907D8D5DEE700BFD9F8002043F6304313
:100F8000C2F34042C0F600039A5C4843B0FBF2F063
:100F9000D9F8001043F62042C1F30311C0F6000255
:100FA000515C40F2080220FA01F140F20400C2F262
:100FB00000000068C2F200021160FFF7A5FE0020E9
:100FC00001B0BDE8F0830000002804BF0120704795
:100FD0002DE9F04182B00446007841F20006C007D6
:100FE000C4F202060CD0706800F00C00042840F037
:100FF00081803068800303D56068002800F0468156
:10100000207880071BD5706810F00C0F09D070682D
:1010100000F00C00082840F087807068C00300F1E1
:1010200083803068800703D52069012840F02E8135
:101030003068616920F0F80040EAC1003060207833
:10104000000713D4207840072CD4E569002D00F068
:101050001881706800F00C00082840F0A780012D6E
:1010600040F00481012002B0BDE8F081A0690028B1
:1010700000F084800020C4F242200121C0F88014D6
:10108000FFF71AFE054600BF706A800700F1B280C4
:10109000FFF712FE401B0228F6D9032002B0BDE87C
:1010A000F08100BFF0695FEAC00808D4F06940F041
:1010B0008050F061F06900F080500090009847F295
:1010C0000007C4F200073868C00549D4386840F406
:1010D00080703860FFF7F0FD054600BF3868C00536
:1010E0003ED4FFF7E9FD401B6428F7D9032002B086
:1010F000BDE8F081706800F00C00082803D170682A
:10110000C0033FF576AF61683068002900F00C81BC
:10111000B1F5A02F00F00081B1F5803F40F01A81B9
:1011200040F480301CE100BF2069002840F200003C
:10113000C4F2422000F0888001210160FFF7BCFD6D
:10114000054600BF306880073FF572AFFFF7B4FD7A
:10115000401B0228F6D9032002B0BDE8F08100BF91
:10116000E168306A002900F09D80052900F0928036
:10117000012940F0AF8040F00100B1E00020C4F24E
:1011800042200021C0F88014FFF796FD054600BFFD
:10119000706A80077FF556AFFFF78EFD401B02286F
:1011A000F6D9032002B0BDE8F08100BF0027C4F2E9
:1011B000422700203866FFF77FFD022D05460DD13E
:1011C0003068800140F1DE80FFF776FD401B022889
:1011D0004FF00300F4D902B0BDE8F081306880011F
:1011E0004FD5FFF769FD401B02284FF00300F5D9EA
:1011F000F1E700BF40F20800C2F20000006844F6C8
:10120000D351C1F26201A0FB0101480A019000BF65
:1012100000BF0198411E002801913FF413AF00BFA9
:101220000198411E002801913FF40CAF00BF0198C6
:10123000411E002801913FF405AF00BF0198411EF7
:1012400000280191E4D1FDE600210160FFF734FDA3
:10125000054600BF306880077FF5F1AEFFF72CFD33
:10126000401B02284FF00300F4D9B4E77068216AEC
:1012700000F480328A4209D1616A00F47010884219
:1012800004D1002002B0BDE8F08100BF012002B00F
:10129000BDE8F08140F004003062306A40F00100A7
:1012A0001EE000BF20F001003062306A20F0040030
:1012B0003062FFF701FD054641F28837306A80074A
:1012C00020D5FFF7F9FC401BB8424FF00300F5D9D9
:1012D00081E700BF20F001003062306A20F0040096
:1012E0003062FFF7E9FC054641F28837306A800733
:1012F00008D4FFF7E1FC401BB842F7D9032002B045
:10130000BDE8F081B8F1000F3FF59FAEF06920F025
:101310008050F06199E600BF40F480203060306872
:1013200040F480301CE000BF20F480303060306832
:1013300020F480203060FFF7BFFC05463068800352
:101340007FF55EAEFFF7B8FC401B64284FF003004A
:10135000F4D940E720F480303060306820F48020F9
:101360003060FFF7A9FC0546306880033FF548AEC2
:10137000FFF7A2FC401B6428F6D9032002B0BDE8A9
:10138000F08100BF206AB0F5803F05D17168A26886
:1013900021F40031114371607168626A21F47411A3
:1013A00011430843706001203866FFF785FC04464E
:1013B000306880013FF565AFFFF77EFC001B022817
:1013C0004FF00300F4D906E7411E0020B0EB116F87
:1013D0001CBF012070474EF21002CEF20002516095
:1013E0004EF62351CEF20001F0230B7007219060DE
:1013F00011607047FEE7000010B51446421C4B1CFC
:1014000092B29BB202F086F82046BDE8104000F090
:1014100001B80000B0B540F6104102B2C4F20101BB
:101420004FF4807C8024C1F804C00C60040AB2F13F
:10143000FF3F0A4601F10403C8BF1A464FF0200ED1
:101440006506C2F800E04FF010020D464A600A60DF
:1014500058BF1D46C5F800E0A5060D464A600A6063
:1014600058BF1D46C5F800E0E5060D464A600A6013
:1014700058BF1D46C5F800E025070D464A600A60C2
:1014800058BF1D46C5F800E065070D464A600A6072
:1014900058BF1D46C5F800E0A5070D464A600A6022
:1014A00058BF1D46E4070C46C5F800E04A600A60D4
:1014B00008BF1C46C4F800E044B2B4F1FF3F0C463C
:1014C0004A600A60C8BF1C46C4F800E044060C46E7
:1014D0004A600A6058BF1C46C4F800E084060C4607
:1014E0004A600A6058BF1C46C4F800E0C4060C46B7
:1014F0004A600A6058BF1C46C4F800E004070C4666
:101500004A600A6058BF1C46C4F800E044070C4615
:101510004A600A6058BF1C46C4F800E084070C46C5
:101520004A600A6058BF1C46C4F800E04A600A607E
:10153000C00718BF0B46C3F800E04A600A60C1F854
:1015400000C0B0BD2DE9F04F91B0804606B240F624
:101550001445002000217F229F230027C4F20105AB
:10156000009701F0D7FF4FF48077802020221023CE
:101570002C462F6028602A602B6044F8043D2146E9
:101580004FEA1820B6F1FF3FC4BF40F61441C4F241
:1015900001010891410621465CBF40F61441C4F2A6
:1015A00001010791810621465CBF40F61441C4F257
:1015B00001010691C10621465CBF40F61441C4F208
:1015C00001010591010721465CBF40F61441C4F2B8
:1015D00001011091410721465CBF40F61441C4F25D
:1015E00001010491810721465CBF40F61441C4F219
:1015F0000101C0072046039104BF40F61440C4F225
:10160000010002904FFA88F0B0F1FF3F2046C4BFBE
:1016100040F61440C4F2010001905FEA48602046A1
:101620005CBF40F61440C4F201000F905FEA88608E
:1016300020465CBF40F61440C4F201000E905FEA01
:10164000C86020465CBF40F61440C4F201000D9013
:101650005FEA087020465CBF40F61440C4F2010007
:101660000C905FEA487020465CBF40F61440C4F21C
:1016700001000B905FEA887020465CBF40F6144082
:10168000C4F201000DF1080E0A905FEAC8702A60EA
:101690002B60236022602B6023602A602B60236014
:1016A00022602B60236022602B6023602A602B6005
:1016B00023602A602B602360276004BF40F6144437
:1016C000C4F20104DDF81CA0DDE905989EE840485D
:1016D000099400BF4FF0A00C4FF480718020296066
:1016E00045F8040C089CBCF1020C22602B6045F804
:1016F000043CCAF800202B6045F8043CC8F80020E0
:101700002B6045F8043CC9F800202B6045F8043CE8
:10171000109802602B6045F8043CCEF800202B6046
:1017200045F8043CCBF800202B6045F8043C3260BF
:101730002B6045F8043C019F3A602B6045F8043C5F
:101740000F9802602B6045F8043C0E9802602B60F5
:1017500045F8043C0D9802602B6045F8043C0C9859
:1017600002602B6045F8043C0B9802602B6045F842
:10177000043C0A9802602B6045F8043C09994FF438
:1017800080700A602B6045F8043C45F8040C286022
:101790004FF0800045F8040C22602B6045F8043CB3
:1017A000CAF800202B6045F8043CC8F800202B60E4
:1017B00045F8043CC9F800202B6045F8043C109C17
:1017C0004FF4807022602B6045F8043CCEF8002076
:1017D0002B6045F8043CCBF800202B6045F8043C16
:1017E00032602B6045F8043C3A602B6045F8043CBD
:1017F0000F9F3A602B6045F8043C0E9F3A602B60C7
:1018000045F8043C0D9F3A602B6045F8043C0C9F62
:101810003A602B6045F8043C0B9F3A602B6045F81A
:10182000043C0A9F3A602B6045F8043C0A602B6038
:1018300045F8043C45F8040C7FF44EAF00980130A5
:10184000802800907FF446AF11B0BDE8F08F000013
:101850002DE9F04385B041F21800C4F2020001689E
:1018600040F6144641F0080101600168C4F2010627
:1018700001F00801019101990168A6F1140441F0F9
:1018800004010160006801AD00F0040001900198BE
:101890004FF430700190012002900020039003204B
:1018A000049020462946FFF70DF94FF498700190F7
:1018B00020462946FFF706F94FF4807910252027A6
:1018C00040244FF4007046F8049C46F8045C46F847
:1018D000047C46F8044C46F8040C64203460FFF79E
:1018E000DDF8322046F8044CFFF7D8F84FF08008B6
:1018F0007820C6F80090C6F800803760356046F85A
:10190000045C3760356046F8045C3760356046F843
:10191000045C46F8047C356046F8045C376035604A
:1019200046F8045C3760356046F8045C3760356023
:1019300046F8045C46F8047C356046F8045C46F8DA
:10194000049CFFF7ABF8C6F80090C6F8008046F894
:10195000047C356046F8045C3760356046F8045C0A
:1019600046F8047C356046F8045C46F8047C356033
:1019700046F8045C3760356046F8045C37603560D3
:1019800046F8045C3760356046F8045C46F8047C31
:10199000356046F8045C46F8049CC6F8009046F8AA
:1019A000048C3760356046F8045C3760356046F873
:1019B000045C3760356046F8045C3760356046F893
:1019C000045C3760356046F8045C3760356046F883
:1019D000045C3760356046F8045C46F8047C35608A
:1019E00046F8045C46F8049CC6F8009046F8048C5F
:1019F0003760356046F8045C3760356046F8045C53
:101A000046F8047C356046F8045C3760356046F87B
:101A1000045C46F8047C356046F8045C46F8047CB7
:101A2000356046F8045C3760356046F8045C376022
:101A3000356046F8045C46F8049CC6F8009046F809
:101A4000048C3760356046F8045C3760356046F8D2
:101A5000045C46F8047C356046F8045C3760356009
:101A600046F8045C46F8047C356046F8045C46F8A9
:101A7000047C356046F8045C3760356046F8045CE9
:101A800046F8047C356046F8045C46F8049CC6F8C9
:101A90000090C6F8008046F8047C356046F8045C87
:101AA0003760356046F8045C46F8047C356046F8DB
:101AB000045C46F8047C356046F8045C37603560A9
:101AC00046F8045C3760356046F8045C46F8047CF0
:101AD000356046F8045C3760356046F8045C46F8CB
:101AE000049CC6F8009046F8048C3760356046F8D0
:101AF000045C3760356046F8045C3760356046F852
:101B0000045C3760356046F8045C3760356046F841
:101B1000045C3760356046F8045C3760356046F831
:101B2000045C46F8047C356046F8045C46F8049C86
:101B3000C6F8009046F8048C3760356046F8045CBF
:101B40003760356046F8045C46F8047C356046F83A
:101B5000045C3760356046F8045C46F8047C356008
:101B600046F8045C46F8047C356046F8045C37604F
:101B7000356046F8045C3760356046F8045C46F82A
:101B8000049CC6F8009046F8048C3760356046F82F
:101B9000045C3760356046F8045C46F8047C3560C8
:101BA00046F8045C3760356046F8045C46F8047C0F
:101BB000356046F8045C46F8047C356046F8045C01
:101BC0003760356046F8045C46F8047C356046F8BA
:101BD000045C46F8049CC6F80090C6F8008046F8FD
:101BE000047C356046F8045C3760356046F8045C78
:101BF00046F8047C356046F8045C46F8047C3560A1
:101C000046F8045C3760356046F8045C3760356040
:101C100046F8045C46F8047C356046F8045C46F8F7
:101C2000047C356046F8045C46F8049CC6F80090D5
:101C300046F8048C3760356046F8045C37603560E0
:101C400046F8045C3760356046F8045C3760356000
:101C500046F8045C3760356046F8045C37603560F0
:101C600046F8045C3760356046F8045C46F8047C4E
:101C7000356046F8045C46F8049CC6F8009046F8C7
:101C8000048C3760356046F8045C3760356046F890
:101C9000045C46F8047C356046F8045C37603560C7
:101CA00046F8045C46F8047C356046F8045C46F867
:101CB000047C356046F8045C3760356046F8045CA7
:101CC0003760356046F8045C46F8049CC6F800901E
:101CD00046F8048C3760356046F8045C3760356040
:101CE00046F8045C46F8047C356046F8045C3760CE
:101CF000356046F8045C46F8047C356046F8045CC0
:101D000046F8047C356046F8045C3760356046F878
:101D1000045C46F8047C356046F8045C46F8049C94
:101D2000C6F8009046F8048C3760356046F8045CCD
:101D30003760356046F8045C3760356046F8045C0F
:101D40003760356046F8045C3760356046F8045CFF
:101D50003760356046F8045C3760356046F8045CEF
:101D600046F8047C356046F8045C46F8049CC6F8E6
:101D7000009046F8048C3760356046F8045C3760A4
:101D8000356046F8045C46F8047C356046F8045C2F
:101D90003760356046F8045C46F8047C356046F8E8
:101DA000045C46F8047C356046F8045C37603560B6
:101DB00046F8045C3760356046F8045C46F8049CDD
:101DC000C6F8009046F8048C3760356046F8045C2D
:101DD0003760356046F8045C46F8047C356046F8A8
:101DE000045C3760356046F8045C46F8047C356076
:101DF00046F8045C46F8047C356046F8045C3760BD
:101E0000356046F8045C46F8047C356046F8045CAE
:101E100046F8049CC6F80090C6F8008046F8047C9A
:101E2000356046F8045C3760356046F8045C46F877
:101E3000047C356046F8045C46F8047C356046F85E
:101E4000045C3760356046F8045C46F8047C356015
:101E500046F8045C3760356046F8045C37603560EE
:101E600046F8045C46F8049CC6F8009046F8048CDA
:101E70003760356046F8045C3760356046F8045CCE
:101E80003760356046F8045C3760356046F8045CBE
:101E90003760356046F8045C46F8047C356046F8E7
:101EA000045C46F8047C356046F8045C46F8047C23
:101EB000356046F8045C46F8049CC6F80090C6F805
:101EC000008046F8047C356046F8045C46F8047CE3
:101ED000356046F8045C3760356046F8045C37606E
:101EE000356046F8045C3760356046F8045C37605E
:101EF000356046F8045C3760356046F8045C37604E
:101F0000356046F8045C46F8049CC6F8009046F834
:101F1000048C46F8047C356046F8045C3760356014
:101F200046F8045C46F8047C356046F8045C37608B
:101F3000356046F8045C3760356046F8045C37600D
:101F4000356046F8045C46F8047C356046F8045C6D
:101F50003760356046F8045C46F8049CC6F800908B
:101F600046F8048C3760356046F8045C37603560AD
:101F700046F8045C3760356046F8045C37603560CD
:101F800046F8045C3760356046F8045C37603560BD
:101F900046F8045C46F8047C356046F8045C37601B
:101FA000356046F8045C46F8049CC6F8009046F894
:101FB000048C46F8047C356046F8045C3760356074
:101FC00046F8045C3760356046F8045C376035607D
:101FD00046F8045C3760356046F8045C46F8047CDB
:101FE000356046F8045C3760356046F8045C37605D
:101FF000356046F8045C46F8049CC6F80090C6F8C4
:10200000008046F8047C356046F8045C46F8047CA1
:10201000356046F8045C3760356046F8045C37602C
:10202000356046F8045C3760356046F8045C37601C
:10203000356046F8045C3760356046F8045C46F865
:10204000047C356046F8045C46F8049CC6F80090B1
:1020500046F8048C46F8047C356046F8045C46F883
:10206000047C356046F8045C3760356046F8045CF3
:102070003760356046F8045C3760356046F8045CCC
:1020800046F8047C356046F8045C3760356046F8F5
:10209000045C46F8047C356046F8045C46F8049C11
:1020A000C6F80090C6F8008046F8047C356046F813
:1020B000045C46F8047C356046F8045C37603560A3
:1020C00046F8045C3760356046F8045C376035607C
:1020D00046F8045C3760356046F8045C46F8047CDA
:1020E000356046F8045C3760356046F8045C46F8B5
:1020F000049CC6F8009046F8048C3760356046F8BA
:10210000045C3760356046F8045C3760356046F83B
:10211000045C3760356046F8045C46F8047C356042
:1021200046F8045C3760356046F8045C46F8047C89
:10213000356046F8045C3760356046F8045C46F864
:10214000049CC6F8009046F8048C3760356046F869
:10215000045C3760356046F8045C3760356046F8EB
:10216000045C3760356046F8045C3760356046F8DB
:10217000045C3760356046F8045C3760356046F8CB
:10218000045C3760356046F8045C46F8049CC6F889
:102190000090C6F8008046F8047C356046F8045C80
:1021A00046F8047C356046F8045C3760356046F8D4
:1021B000045C3760356046F8045C3760356046F88B
:1021C000045C3760356046F8045C46F8047C356092
:1021D00046F8045C46F8047C356046F8045C46F832
:1021E000049CC6F8009046F8048C46F8047C3560E0
:1021F00046F8045C3760356046F8045C376035604B
:1022000046F8045C3760356046F8045C46F8047CA8
:10221000356046F8045C3760356046F8045C46F883
:10222000047C356046F8045C3760356046F8045C31
:1022300046F8049CC6F8009046F8048C3760356078
:1022400046F8045C3760356046F8045C46F8047C68
:10225000356046F8045C3760356046F8045C46F843
:10226000047C356046F8045C3760356046F8045CF1
:1022700046F8047C356046F8045C3760356046F803
:10228000045C46F8049CC6F80090C6F8008046F846
:10229000047C356046F8045C46F8047C356046F8FA
:1022A000045C3760356046F8045C3760356046F89A
:1022B000045C3760356046F8045C46F8047C3560A1
:1022C00046F8045C3760356046F8045C376035607A
:1022D00046F8045C46F8049CC6F8009046F8048C66
:1022E00046F8047C356046F8045C3760356046F893
:1022F000045C3760356046F8045C3760356046F84A
:10230000045C46F8047C356046F8045C3760356050
:1023100046F8045C46F8047C356046F8045C376097
:10232000356046F8045C46F8049CC6F8009046F810
:10233000048C46F8047C356046F8045C46F8047C5E
:10234000356046F8045C46F8047C356046F8045C69
:102350003760356046F8045C46F8047C356046F822
:10236000045C46F8047C356046F8045C46F8047C5E
:10237000356046F8045C3760356046F8045C46F822
:10238000049CC6F80090C6F8008046F8047C3560CE
:1023900046F8045C46F8047C356046F8045C376017
:1023A000356046F8045C3760356046F8045C376099
:1023B000356046F8045C46F8047C356046F8045CF9
:1023C0003760356046F8045C46F8047C356046F8B2
:1023D000045C46F8049CC6F8009046F8048C37600C
:1023E000356046F8045C3760356046F8045C376059
:1023F000356046F8045C3760356046F8045C46F8A2
:10240000047C356046F8045C46F8047C356046F888
:10241000045C46F8047C356046F8045C376035603F
:1024200046F8045C46F8049CC6F80090C6F80080A4
:102430003760356046F8045C3760356046F8045C08
:1024400046F8047C356046F8045C46F8047C356048
:1024500046F8045C3760356046F8045C46F8047C56
:10246000356046F8045C46F8047C356046F8045C48
:102470003760356046F8045C46F8049CC6F8009066
:1024800046F8048C46F8047C356046F8045C46F84F
:10249000047C356046F8045C3760356046F8045CBF
:1024A0003760356046F8045C3760356046F8045C98
:1024B0003760356046F8045C3760356046F8045C88
:1024C0003760356046F8045C46F8049CC6F8009016
:1024D000C6F8008046F8047C356046F8045C46F88F
:1024E000047C356046F8045C46F8047C356046F8A8
:1024F000045C3760356046F8045C3760356046F848
:10250000045C3760356046F8045C3760356046F837
:10251000045C3760356046F8045C46F8049CC6F8F5
:10252000009046F8048C3760356046F8045C3760EC
:10253000356046F8045C3760356046F8045C376007
:10254000356046F8045C46F8047C356046F8045C67
:1025500046F8047C356046F8045C46F8047C356037
:1025600046F8045C46F8047C356046F8045C46F89E
:10257000049CC6F8009046F8048C3760356046F835
:10258000045C3760356046F8045C3760356046F8B7
:10259000045C46F8047C356046F8045C46F8047C2C
:1025A000356046F8045C3760356046F8045C46F8F0
:1025B000047C356046F8045C3760356046F8045C9E
:1025C00046F8049CC6F8009046F8048C37603560E5
:1025D00046F8045C3760356046F8045C3760356067
:1025E00046F8045C3760356046F8045C46F8047CC5
:1025F000356046F8045C46F8047C356046F8045CB7
:1026000046F8047C356046F8045C46F8047C356086
:1026100046F8045C46F8049CC6F8009046F8048C22
:102620003760356046F8045C3760356046F8045C16
:102630003760356046F8045C46F8047C356046F83F
:10264000045C46F8047C356046F8045C376035600D
:1026500046F8045C3760356046F8045C37603560E6
:1026600046F8045C46F8049CC6F8009046F8048CD2
:102670003760356046F8045C3760356046F8045CC6
:1026800046F8047C356046F8045C3760356046F8EF
:10269000045C46F8047C356046F8045C46F8047C2B
:1026A000356046F8045C46F8047C356046F8045C06
:1026B00046F8047C356046F8045C46F8049CC6F88D
:1026C000009046F8048C3760356046F8045C37604B
:1026D000356046F8045C46F8047C356046F8045CD6
:1026E0003760356046F8045C46F8047C356046F88F
:1026F000045C3760356046F8045C3760356046F846
:10270000045C3760356046F8045C46F8049CC6F803
:10271000009046F8048C3760356046F8045C3760FA
:10272000356046F8045C46F8047C356046F8045C85
:102730003760356046F8045C3760356046F8045C05
:102740003760356046F8045C3760356046F8045CF5
:102750003760356046F8045C46F8049CC6F8009083
:1027600046F8048C3760356046F8045C37603560A5
:1027700046F8045C46F8047C356046F8045C376033
:10278000356046F8045C3760356046F8045C3760B5
:10279000356046F8045C46F8047C356046F8045C15
:1027A0003760356046F8045C46F8049CC6F8009033
:1027B00046F8048C3760356046F8045C3760356055
:1027C00046F8045C3760356046F8045C46F8047CE3
:1027D000356046F8045C46F8047C356046F8045CD5
:1027E00046F8047C356046F8045C46F8047C3560A5
:1027F00046F8045C46F8047C356046F8045C46F80C
:10280000049CC6F8009046F8048C3760356046F8A2
:10281000045C3760356046F8045C3760356046F824
:10282000045C46F8047C356046F8045C46F8047C99
:10283000356046F8045C3760356046F8045C46F85D
:10284000047C356046F8045C46F8047C356046F844
:10285000045C46F8049CC6F8009046F8048C376087
:10286000356046F8045C3760356046F8045C46F82D
:10287000047C356046F8045C3760356046F8045CDB
:102880003760356046F8045C3760356046F8045CB4
:1028900046F8047C356046F8045C46F8047C3560F4
:1028A00046F8045C46F8049CC6F8009046F8048C90
:1028B0003760356046F8045C3760356046F8045C84
:1028C00046F8047C356046F8045C46F8047C3560C4
:1028D00046F8045C3760356046F8045C46F8047CD2
:1028E000356046F8045C46F8047C356046F8045CC4
:1028F00046F8047C356046F8045C46F8049CC6F84B
:10290000009046F8048C3760356046F8045C376008
:10291000356046F8045C3760356046F8045C376023
:10292000356046F8045C3760356046F8045C376013
:10293000356046F8045C3760356046F8045C376003
:10294000356046F8045C46F8049CC6F8009046F8EA
:10295000048C3760356046F8045C3760356046F8B3
:10296000045C3760356046F8045C3760356046F8D3
:10297000045C3760356046F8045C46F8047C3560DA
:1029800046F8045C46F8047C356046F8045C46F87A
:10299000047C356046F8045C46F8049CC6F8009058
:1029A00046F8048C3760356046F8045C3760356063
:1029B00046F8045C3760356046F8045C3760356083
:1029C00046F8045C3760356046F8045C3760356073
:1029D00046F8045C46F8047C356046F8045C3760D1
:1029E000356046F8045C46F8049CC6F8009046F84A
:1029F000048C3760356046F8045C3760356046F813
:102A0000045C3760356046F8045C46F8047C356049
:102A100046F8045C3760356046F8045C3760356022
:102A200046F8045C3760356046F8045C3760356012
:102A300046F8045C46F8049CC6F80090C6F800808E
:102A400046F8047C356046F8045C46F8047C356042
:102A500046F8045C46F8047C356046F8045C376050
:102A6000356046F8045C3760356046F8045C3760D2
:102A7000356046F8045C3760356046F8045C46F81B
:102A8000047C356046F8045C46F8049CC6F8009067
:102A900046F8048C3760356046F8045C3760356072
:102AA00046F8045C3760356046F8045C3760356092
:102AB00046F8045C46F8047C356046F8045C46F849
:102AC000047C356046F8045C46F8047C356046F8C2
:102AD000045C46F8047C356046F8045C46F8049CC7
:102AE000C6F8009046F8048C3760356046F8045C00
:102AF0003760356046F8045C3760356046F8045C42
:102B000046F8047C356046F8045C46F8047C356081
:102B100046F8045C3760356046F8045C46F8047C8F
:102B2000356046F8045C46F8047C356046F8045C81
:102B300046F8049CC6F8009046F8048C376035606F
:102B400046F8045C3760356046F8045C37603560F1
:102B500046F8045C3760356046F8045C46F8047C4F
:102B6000356046F8045C46F8047C356046F8045C41
:102B700046F8047C356046F8045C46F8047C356011
:102B800046F8045C46F8049CC6F8009046F8048CAD
:102B90003760356046F8045C3760356046F8045CA1
:102BA0003760356046F8045C46F8047C356046F8CA
:102BB000045C3760356046F8045C46F8047C356098
:102BC00046F8045C46F8047C356046F8045C46F838
:102BD000047C356046F8045C46F8049CC6F8009016
:102BE00046F8048C3760356046F8045C3760356021
:102BF00046F8045C46F8047C356046F8045C46F808
:102C0000047C356046F8045C3760356046F8045C47
:102C10003760356046F8045C46F8047C356046F859
:102C2000045C46F8047C356046F8045C46F8049C75
:102C3000C6F8009046F8048C3760356046F8045CAE
:102C40003760356046F8045C46F8047C356046F829
:102C5000045C3760356046F8045C46F8047C3560F7
:102C600046F8045C46F8047C356046F8045C37603E
:102C7000356046F8045C3760356046F8045C46F819
:102C8000049CC6F8009046F8048C3760356046F81E
:102C9000045C3760356046F8045C46F8047C3560B7
:102CA00046F8045C3760356046F8045C46F8047CFE
:102CB000356046F8045C3760356046F8045C376080
:102CC000356046F8045C46F8047C356046F8045CE0
:102CD00046F8049CC6F8009046F8048C37603560CE
:102CE00046F8045C3760356046F8045C46F8047CBE
:102CF000356046F8045C3760356046F8045C46F899
:102D0000047C356046F8045C46F8047C356046F87F
:102D1000045C46F8047C356046F8045C3760356036
:102D200046F8045C46F8049CC6F8009046F8048C0B
:102D30003760356046F8045C3760356046F8045CFF
:102D400046F8047C356046F8045C46F8047C35603F
:102D500046F8045C3760356046F8045C37603560DF
:102D600046F8045C3760356046F8045C37603560CF
:102D700046F8045C46F8049CC6F8009046F8048CBB
:102D80003760356046F8045C3760356046F8045CAF
:102D900046F8047C356046F8045C46F8047C3560EF
:102DA00046F8045C3760356046F8045C376035608F
:102DB00046F8045C3760356046F8045C376035607F
:102DC00046F8045C46F8049CC6F8009046F8048C6B
:102DD0003760356046F8045C3760356046F8045C5F
:102DE00046F8047C356046F8045C46F8047C35609F
:102DF00046F8045C46F8047C356046F8045C3760AD
:102E0000356046F8045C3760356046F8045C46F887
:102E1000047C356046F8045C46F8049CC6F80090D3
:102E200046F8048C3760356046F8045C37603560DE
:102E300046F8045C46F8047C356046F8045C46F8C5
:102E4000047C356046F8045C46F8047C356046F83E
:102E5000045C46F8047C356046F8045C46F8047C63
:102E6000356046F8045C46F8047C356046F8045C3E
:102E700046F8049CC6F8009046F8048C376035602C
:102E800046F8045C3760356046F8045C37603560AE
:102E900046F8045C3760356046F8045C376035609E
:102EA00046F8045C3760356046F8045C376035608E
:102EB00046F8045C3760356046F8045C46F8049CCC
:102EC000C6F8009046F8048C3760356046F8045C1C
:102ED0003760356046F8045C3760356046F8045C5E
:102EE0003760356046F8045C3760356046F8045C4E
:102EF00046F8047C356046F8045C46F8047C35608E
:102F000046F8045C46F8047C356046F8045C46F8F4
:102F1000049CC6F8009046F8048C3760356046F88B
:102F2000045C3760356046F8045C3760356046F80D
:102F3000045C3760356046F8045C3760356046F8FD
:102F4000045C3760356046F8045C46F8047C356004
:102F500046F8045C46F8047C356046F8045C46F8A4
:102F6000049CC6F8009046F8048C3760356046F83B
:102F7000045C3760356046F8045C3760356046F8BD
:102F8000045C46F8047C356046F8045C37603560C4
:102F900046F8045C3760356046F8045C376035609D
:102FA00046F8045C3760356046F8045C46F8049CDB
:102FB000C6F80090C6F800803760356046F8045CBB
:102FC0003760356046F8045C46F8047C356046F8A6
:102FD000045C3760356046F8045C46F8047C356074
:102FE00046F8045C3760356046F8045C46F8047CBB
:102FF000356046F8045C3760356046F8045C46F896
:10300000049CC6F8009046F8048C3760356046F89A
:10301000045C3760356046F8045C3760356046F81C
:10302000045C3760356046F8045C3760356046F80C
:10303000045C3760356046F8045C3760356046F8FC
:10304000045C3760356046F8045C46F8049CC6F8BA
:10305000009046F8048C3760356046F8045C3760B1
:10306000356046F8045C3760356046F8045C3760CC
:10307000356046F8045C3760356046F8045C3760BC
:10308000356046F8045C3760356046F8045C3760AC
:10309000356046F8045C46F8049CC6F8009046F893
:1030A000048C3760356046F8045C3760356046F85C
:1030B000045C3760356046F8045C3760356046F87C
:1030C000045C3760356046F8045C3760356046F86C
:1030D000045C3760356046F8045C3760356046F85C
:1030E000045C46F8049CC6F8009046F8048C3760EF
:1030F000356046F8045C46F8047C356046F8045CAC
:1031000046F8047C356046F8045C46F8047C35607B
:1031100046F8045C46F8047C356046F8045C46F8E2
:10312000047C356046F8045C46F8047C356046F85B
:10313000045C46F8047C356046F8045C46F8049C60
:10314000C6F80090C6F800803760356046F8045C29
:103150003760356046F8045C46F8047C356046F814
:10316000045C3760356046F8045C46F8047C3560E2
:1031700046F8045C3760356046F8045C46F8047C29
:10318000356046F8045C46F8047C356046F8045C1B
:1031900046F8049CC6F8009046F8048C3760356009
:1031A00046F8045C3760356046F8045C376035608B
:1031B00046F8045C3760356046F8045C376035607B
:1031C00046F8045C3760356046F8045C376035606B
:1031D00046F8045C3760356046F8045C46F8049CA9
:1031E000C6F8009046F8048C3760356046F8045CF9
:1031F0003760356046F8045C3760356046F8045C3B
:103200003760356046F8045C3760356046F8045C2A
:103210003760356046F8045C3760356046F8045C1A
:103220003760356046F8045C46F8049CC6F80090A8
:1032300046F8048C3760356046F8045C37603560CA
:1032400046F8045C3760356046F8045C37603560EA
:1032500046F8045C3760356046F8045C37603560DA
:1032600046F8045C3760356046F8045C37603560CA
:1032700046F8045C46F8049CC6F8009046F8048CB6
:1032800046F8047C356046F8045C3760356046F8E3
:10329000045C3760356046F8045C46F8047C3560B1
:1032A00046F8045C46F8047C356046F8045C46F851
:1032B000047C356046F8045C46F8047C356046F8CA
:1032C000045C46F8047C356046F8045C46F8049CCF
:1032D000C6F80090C6F8008046F8047C356046F8D1
:1032E000045C46F8047C356046F8045C46F8047CCF
:1032F000356046F8045C46F8047C356046F8045CAA
:103300003760356046F8045C3760356046F8045C29
:103310003760356046F8045C3760356046F8045C19
:1033200046F8049CC6F8009046F8048C3760356077
:1033300046F8045C3760356046F8045C37603560F9
:1033400046F8045C3760356046F8045C37603560E9
:1033500046F8045C3760356046F8045C37603560D9
:1033600046F8045C46F8047C356046F8045C46F890
:10337000049CC6F80090C6F8008046F8047C3560CE
:1033800046F8045C46F8047C356046F8045C46F870
:10339000047C356046F8045C46F8047C356046F8E9
:1033A000045C3760356046F8045C46F8047C3560A0
:1033B00046F8045C46F8047C356046F8045C3760E7
:1033C000356046F8045C46F8049CC6F8009046F860
:1033D000048C3760356046F8045C3760356046F829
:1033E000045C3760356046F8045C3760356046F849
:1033F000045C3760356046F8045C3760356046F839
:10340000045C3760356046F8045C3760356046F828
:10341000045C46F8049CC6F80090C6F8008037604B
:10342000356046F8045C3760356046F8045C46F861
:10343000047C356046F8045C46F8047C356046F848
:10344000045C46F8047C356046F8045C37603560FF
:1034500046F8045C46F8047C356046F8045C376046
:10346000356046F8045C46F8049CC6F8009046F8BF
:10347000048C3760356046F8045C3760356046F888
:10348000045C3760356046F8045C3760356046F8A8
:10349000045C3760356046F8045C46F8047C3560AF
:1034A00046F8045C3760356046F8045C46F8047CF6
:1034B000356046F8045C46F8049CC6F80090C6F8EF
:1034C00000803760356046F8045C3760356046F848
:1034D000045C46F8047C356046F8045C376035606F
:1034E00046F8045C46F8047C356046F8045C3760B6
:1034F000356046F8045C3760356046F8045C46F891
:10350000047C356046F8045C46F8049C05B0BDE8D0
:10351000F08300002DE9F04140F6144EC4F2010E94
:103520004FF4807C4FF08008202410257646CEF89A
:1035300000C0CEF80080CEF80040CEF8005046F82B
:10354000045D47B2B7F1FF3F3746CEF80040CEF8F2
:10355000005035603460CEF800503560CEF8004041
:10356000CEF8005035603460CEF800503560CEF8AB
:103570000040CEF8005035603460CEF80050356021
:10358000CEF80040CEF800503560C6F800C0CEF846
:1035900000C0C6F80080CEF80040CEF8005035607C
:1035A000CEF80040CEF800503560CEF80040CEF89E
:1035B00000503560CEF80040CEF800503560CEF8AF
:1035C0000040CEF800503560CEF80040CEF80050F4
:1035D0003560CEF80040CEF800503560CEF800409F
:1035E000CEF800503560C6F800C0CEF800C0C6F86E
:1035F0000080C4BF40F61447C4F201073C60470690
:103600003746CEF8005035605CBF40F61447C4F230
:1036100001073C6087063746CEF8005035605CBF36
:1036200040F61447C4F201073C60C7063746CEF89F
:10363000005035605CBF40F61447C4F201073C609F
:1036400007073746CEF8005035605CBF40F6144798
:10365000C4F201073C6047073746CEF8005035609A
:103660005CBF40F61447C4F201073C608707374649
:10367000CEF8005035605CBF40F61447C4F2010735
:10368000C00730463C60CEF80050356004BF40F6BD
:103690001440C4F201000460901C47B2B7F1FF3F30
:1036A0003746CEF800503560C6F800C0CEF800C0EE
:1036B000C6F80080CEF80040CEF800503560CEF855
:1036C0000040CEF800503560CEF80040CEF80050F3
:1036D0003560CEF80040CEF800503560CEF800409E
:1036E000CEF800503560CEF80040CEF8005035607E
:1036F000CEF80040CEF800503560CEF80040CEF84D
:1037000000503560C6F800C0CEF800C0C6F8008092
:10371000C4BF40F61447C4F201073C604706374671
:10372000CEF8005035605CBF40F61447C4F2010784
:103730003C6087063746CEF8005035605CBF40F6E7
:103740001447C4F201073C60C7063746CEF8005064
:1037500035605CBF40F61447C4F201073C600707C0
:103760003746CEF8005035605CBF40F61447C4F2CF
:103770000107400730463C60CEF8005035605CBF22
:1037800040F61440C4F20100046090077046CEF881
:103790000050356058BF30460460D0073046CEF840
:1037A0000050356004BF40F61440C4F201000460CC
:1037B00048B2B0F1FF3F3046CEF800503560C6F851
:1037C00000C0CEF800C0CEF80080CEF80040CEF8A1
:1037D00000503560CEF80040CEF8005035603460BF
:1037E000CEF800503560CEF80040CEF8005035607D
:1037F0003460CEF800503560CEF80040CEF800506E
:1038000035603460CEF8005035603460CEF800503A
:103810003560C6F800C0CEF800C0C6F80080CEF80B
:103820000040CEF800503560CEF80040CEF8005091
:103830003560CEF80040CEF800503560CEF800403C
:10384000CEF800503560CEF80040CEF8005035601C
:10385000CEF80040CEF800503560CEF80040CEF8EB
:1038600000503560CEF80040CEF800503560C6F804
:1038700000C0CEF800C0C6F80080C4BF40F61440B7
:10388000C4F20100046048063046CEF800503560AE
:103890005CBF40F61440C4F2010004608806304664
:1038A000CEF8005035605CBF40F61440C4F2010011
:1038B0000460C8063046CEF8005035605CBF40F664
:1038C0001440C4F20100046008073046CEF80050EE
:1038D00035605CBF40F61440C4F201000460480744
:1038E0003046CEF8005035605CBF40F61440C4F25C
:1038F0000100046088073046CEF8005035605CBF98
:1039000040F61440C4F201000460C8073046CEF807
:103910000050356004BF40F61440C4F2010004605A
:10392000581C41B2B1F1FF3F3146CEF8005035602E
:10393000C6F800C0CEF800C0C6F80080CEF800403F
:10394000CEF800503560CEF80040CEF8005035601B
:10395000CEF80040CEF800503560CEF80040CEF8EA
:1039600000503560CEF80040CEF800503560CEF8FB
:103970000040CEF800503560CEF80040CEF8005040
:103980003560CEF80040CEF800503560C6F800C073
:10399000CEF800C0C6F80080C4BF40F61441C4F29F
:1039A00001010C6041063146CEF8005035605CBF25
:1039B00040F61441C4F201010C6081063146CEF894
:1039C000005035605CBF40F61441C4F201010C6048
:1039D000C1063146CEF8005035605CBF40F6144158
:1039E000C4F201010C6001073146CEF80050356089
:1039F0005CBF40F61441C4F201010C60410731463E
:103A0000CEF8005035605CBF40F61441C4F20101AD
:103A1000800730460C60CEF8005035605CBF40F641
:103A20001440C4F201000460D8077046CEF800507C
:103A3000356008BF30460460CEF800503560C6F8E7
:103A400000C0CEF800C0CEF80080CEF80040CEF81E
:103A500000503560CEF80040CEF80050356034603C
:103A6000CEF800503560CEF80040CEF800503560FA
:103A70003460CEF8005035603460CEF800503560C8
:103A8000CEF80040CEF800503560CEF80040CEF8B9
:103A900000503560C6F800C0BDE8F08102460B4614
:103AA000FFF738BDFEE70000FEE7000070470000AA
:103AB00070470000FDF706B970470000FEE7000000
:103AC00090B0FDF70DF900240120CDE90B44CDE9BC
:103AD000094406900A904FF4E0104FF4803102251B
:103AE0000F9006A8CDE90714CDE90D51FDF76CFA4A
:103AF00020B1EFF3108072B6FEE700BF0F20CDE9D2
:103B000001054FF48060CDE9040401A8022103946B
:103B1000FDF77CF920B1EFF3108072B6FEE700BF2D
:103B200040F60004C4F2010420464FF480710022E4
:103B30004FF480760025FDF7B9F86420FCF7AEFF5E
:103B400041F21800CDE90855CDE90655C4F202004E
:103B50000168002241F010010160016801F01001CC
:103B600001910199016841F020010160016801F0B3
:103B7000200101910199016841F004010160006890
:103B80004FF4807100F00400019001982046FDF789
:103B90008DF80120CDE907050220099006A92046ED
:103BA0000696FCF78FFFFDF753FE4FF47840FDF7C4
:103BB000C9FC14A60A200A214FF6FF724FF478437D
:103BC0000096FCF7BDFB44F23320C0F600006E21E6
:103BD000892200230095FCF739FF4FF6FF70FDF7AF
:103BE000B1FC0CA60A200A214FF6FF7200230096B2
:103BF000FCF7A6FB00203C2114225023FCF75EFBBF
:103C0000FEE700BF48656C6C6F2C20576F726C64C8
:103C100021000000C4E3BAC3CAC0BDE70000000031
:103C2000000000000000000001020304060708096C
:103C30000102000000000000000000000000000081
:103C400000000010101010101010101000001010C4
:103C5000000000006C6C2424000000000100000043
:103C600000000024242424FE48484848FC909090FA
:103C7000900000103C5492905038141212925478D4
:103C800010000000225C94A8481010242A52548886
:103C90000000000030484850206E54948C888A748C
:103CA0000000000030301010000000000000000094
:103CB00000000004081010202020202020101008F0
:103CC0000400008040202010101010101020204010
:103CD000800000000000105438103854100000001C
:103CE000000000000010101010FE10101010000056
:103CF00000000000000000000000000000001010A4
:103D0000200000000000000000FE00000000000095
:103D10000000000000000000000000000000101083
:103D2000000000000404080810102020404080809B
:103D3000000000003844828282828282828244387B
:103D40000000000010701010101010101010107CE7
:103D5000000000003844828204081020408284FC65
:103D60000000000038448202043804020282443811
:103D700000000000040C141424244444FE04040E27
:103D800000000000FC808080B8C482020282847837
:103D9000000000003C428280B8C4828282824438A3
:103DA000000000007E428204040808081010101071
:103DB00000000000384482824438448282824438C1
:103DC00000000000384482828282463A02824438EF
:103DD00000000000000010100000000010100000A3
:103DE0000000000000001010000000000010102073
:103DF0000000000000000618608060180600000047
:103E00000000000000000000FE0000FE00000000B6
:103E1000000000000000C0300C020C30C0000000A8
:103E200000000038448282020408101010001010B4
:103E3000000000003844829AAAAAAAAAAA96804240
:103E40003C00000010101028282844447C4444EE14
:103E500000000000FC424242427C4242424242FC9C
:103E6000000000003C448280808080808282443850
:103E700000000000F844424242424242424244F8BA
:103E800000000000FC444240447C4440404244FC6A
:103E900000000000FC444240447C4440404040F06C
:103EA00000000000344C828080808E8484844C34F6
:103EB00000000000EE444444447C4444444444EE46
:103EC000000000007C101010101010101010107C5A
:103ED000000000003E0808080808080808888870E4
:103EE00000000000EE44484850605048484444EE0A
:103EF00000000000E040404040404040404244FC60
:103F000000000000C6446C6C6C545454444444EEAD
:103F100000000000CE4464646454544C4C4C44E4AF
:103F20000000000038448282828282828282443889
:103F300000000000F844424242447840404040E0E3
:103F400000000000384482828282828282BA443C2D
:103F500002000000F048444444487048444444E6A9
:103F6000000000003C44828040300C020282447811
:103F7000000000007C549210101010101010103827
:103F800000000000EE444444444444444444443863
:103F900000000000EE444444442828282810101053
:103FA00000000000EE445454545454542828282847
:103FB00000000000EE44442828101028284444EE55
:103FC00000000000EE44442828281010101010387B
:103FD000000000007E44840808102020408284FCF9
:103FE0000000001C101010101010101010101010F5
:103FF0001C000000EE445454FE5454542828282831
:104000000000007010101010101010101010101080
:104010007000003048840000000000000000000034
:104020000000000000000000000000000000000090
:10403000FE00004020000000000000000000000022
:1040400000000000000000007884047C84848C76EA
:1040500000000000C0404040586442424242645860
:104060000000000000000000384480808080443858
:10407000000000000C040404344C848484844C3616
:104080000000000000000000788484FC80808478B8
:104090000000000018242020F8202020202020707C
:1040A00000000000000000003A444478807C8282D6
:1040B0007C000000C040404058644444444444EE06
:1040C0000000000010100000301010101010103808
:1040D00000000000101000003010101010101090A0
:1040E00060000000C04040405C485060504844EED2
:1040F00000000000301010101011101010101039B6
:104100000000000000000000ACD29292929292D681
:10411000000000000000000058E44444444444EE21
:10412000000000000000000038448282828244388F
:104130000000000000000000D86442424264584081
:10414000E000000000000000364C8484844C3404FD
:104150000E000000000000006C30202020202070A5
:104160000000000000000000788884601884447813
:104170000000000000202020F8202020202024180B
:104180000000000000000000C64242424242463A9F
:104190000000000000000000EE4444282828101011
:1041A0000000000000000000EE4444545428282879
:1041B0000000000000000000EE442810102844EE2B
:1041C0000000000000000000EE444428281010A069
:1041D000C0000000000000007E448810204284FCE3
:1041E0000000000C101010101060101010101010B3
:1041F0000C000010101010101010101010101010E3
:10420000100000C020202020201820202020202066
:10421000C00000000000000000728C0000000000E0
:1042200000000002030405060708090A0B0C0D0E26
:104230000F101000106D008900011B2BF62BF62BC0
:10424000F62CF62DF64DF64DF64EF62DEE4DEE6EA5
:10425000F66EF66EF66DEE8EF68EF6AFFE8FF68F7C
:10426000F690F690F66FEE4FEE6FF6B0F6D0FED009
:10427000FED1FED1FED1FED1FED1F6D1F6D1FED1D6
:10428000F6D2F6F2FEF3FEF2FEF2F6D2F612FFD10D
:10429000F611FF11FFD0F6AFEEF0F6F0F6F0F611E2
:1042A000FF11FFF1FEF1FE12FF10F7F1FE11FFF119
:1042B000FEF1FEF0FE11FF8EEE10FF52FFAFEE3268
:1042C000FFF1F630F7CEE631FFB1EEF2FEF1FE106F
:1042D000FFCFF610FF12FF90EE53FFD0F6F0F6CFAF
:1042E000EE10F7F0F6AFF68EF6AFF6CFF6AFEED0F3
:1042F000F611FF11FFD0F6F1FEAFFEAFFEEFFECEDE
:10430000F6EFF651FF6DDE8FE611F76FE62DDEADAD
:10431000F66AF669F62BF60BEE0BEE0CF62CF62D84
:10432000F64DF62DF64DF64EF66EF66EF66EF68EF0
:10433000F68EF68EF68FFE8FF6AFFEB0FED0FE90B4
:10434000F68FF68FF6B0F6AFF6AFF6F1FED1FED1EE
:10435000F6D1F6D1F6D1F6D1F6D1F6F1F6F2FEF2BB
:10436000FEF2FEF2F6D1F612FFD1F6F1FE11FFD009
:10437000F6D0F6F0F6F0F6F0F611FFF1FEF1F6F1F8
:10438000F611FF11F711FF11FF11FF11FFF0FEF001
:10439000F631FFAFF68EEE32FFD1F6D0F630F730C1
:1043A000F773FF12F7D1F611FFCFF6CFF6EFFEF15C
:1043B000FEB1F611FFD0F6CFEECFEECFF6AFF68E10
:1043C000F68EEEAEF6CFF610FFAFEEF0F66EE6111B
:1043D000FFF0FECFFE6DF6CFFEAEF6AFEEB0E633E9
:1043E000FFF3F6AECD89ACE038CDFE8AF669F60B68
:1043F000F60BEEEBED0BEE2CF62DF64DF62DF64D05
:10440000F66EF66DF66DF68EF6AEF68EF6AEFE8FA5
:10441000FEAFF6AFFED0FEB0FEB0F6B0F6B0FEB026
:10442000F6AFF6D0FEF0FED0FED0F6D0FEF1FEF1F3
:10443000FED0F6D1F6F1F6F1FEF2FEF2F6D1F6D1AB
:10444000F6F1F6D0F6F1F6F1F6D0F6D0F6F0F61178
:10445000FFF1F611FF11FFF1F6F1F6F1FE31FF1158
:10446000FF11FF12FF11FFF1FE8FEE31FF51FFD060
:10447000F6B0F654FF12FFF0EEF0EED2EE13FFF2BC
:10448000FE32FF10FFEFF6CFF6F1F611FFD0F6EF98
:10449000F6EFF6CFEEAFEEAEEEAEF6AEF6AEF6CF90
:1044A000F6AEEE10FF30FF10FFCFF6CFFECFFE517D
:1044B000FF4DEE31FF12F7A98B255A01396020809C
:1044C00028CAB4CDFE6AF6AAF6CAEDEAED0BF62CC0
:1044D000F62CF62CF62DF66DFE4DF66DF68DF68D5E
:1044E000FE8DF68DF68EF6AEFEAEFEAEFEAFF6AFEC
:1044F000FEAFFEAFF6AFF6AFF68FF66EEE6EEEAE37
:10450000F6CEF6EFFECFF6AFF6D0F610FFF0FEF0E7
:10451000FEF1FEF1F6D1F6D1F6D1F6D1F6D1F6F1F3
:10452000F6F1F6F1F6F1F6F1F6F1F6F0F611FF110B
:10453000FF11FFF1FE11FF11FF11FF11FF11FF111C
:10454000FFF0FE8FEE11FF10FF11FFF1F6279C8D9B
:10455000C5CFCDD0CD0EB54FBD13F7F0F64FFFED63
:10456000F6EEF610F7D0F6F0F6CFEECFEEEFF6CF90
:10457000F6EFFE0FFF0FFFEFFEEFFE10FF10FFCF75
:10458000EECFEEAFF631FF31FF2EDE54FF0994007F
:10459000102010001000100018001080286CEECAC7
:1045A000F6E9F6CAEDEBF50BF64CFE4CFE2CF62CBC
:1045B000F66DFE4CF66CF68DF68DFE8DF66DF66D95
:1045C000F68EF6AEFEAEFEAEF6AFF6AFF68EF68F18
:1045D000F6AFF6AFF68EF6AEF68DEEAEF6CEF6AEE2
:1045E000F6AEF6CFF6F0F6F0FEF0FEF0F6F1FEF1E4
:1045F000F6F1F6F1F6F1F6D2F6F2F6F1F6F1F6F1A1
:10460000F6F1F6D0F6D0F6F1F6F1F6F1F6F1F61194
:10461000FF11F711FF11FFF1FEF1FED0F611FF10AF
:10462000FFAFEE8FEE52FF237B00180018401800FA
:1046300010601813F752FFADE62FF72FF7F1F6D100
:10464000EE12F7F0F6CFEEEFF6CFF6EFFE0FFF0F1C
:10465000FFEFFECFF6F1F62ED693FF32FFF0F632E3
:10466000FFB1EE13F78BA4001000100010001041F2
:1046700018075A097BEEB46DE649E689EEEBF50BB7
:10468000F60BF64CFE4CFE2CF62CF64CF64CF66C6B
:10469000F66CF66CF66CF66CF68DF6AEF68EF68E63
:1046A000F68EF68EF68EF68EF68EF6AFFEEFFEEFF7
:1046B000FEEFFECEF6AEF6AEF6AEF6AEF6AFF6AF67
:1046C000F6F0F6F0FEF0FEF1FEF1FEF1FEF1FEF284
:1046D000F6F2FEF2FEF1FEF1FEF1F6F1F6F1F6F081
:1046E000F6F1F611FFF1F6F1F611FF11F711FF11D6
:1046F000FFF1FEF1FEF0F6D0F6F0F651FF11FFD11A
:10470000EE0BB5E0304018602040184018D4EEB4ED
:10471000FFF0EE30F711EF70E6D2EE12F732FFCF76
:10472000EEEFF6EFF6EFF6EFFEEFFEEFF6D0F6F275
:10473000EEE36A71DE499C91E671E6F5EEEEAC407F
:10474000184552F4CDA44140100008255253DE31E3
:10475000DEF0FEADF6ACF6EBF50BF60BF62CFE2C10
:10476000F62BF62BF62CF64CF64CF64CF64CF66C7B
:10477000F66CF6CEFEAEFEAEF68DF66DF66DF68EEE
:10478000F66DEE6DEE8EF6CFF6CFF6AEF60FFFEFCE
:10479000FEAEF6AEF6EFFECFF6AFF6F0F6F0FEF0B8
:1047A000FEF1FE11FFF1FE12FFF2FE12FF12FFF109
:1047B000FE12FFF1FEF1F611FF11FF11FF11FF11C3
:1047C000FF11FF11FF11F711FF11FF11FFF1FEF0B3
:1047D000F6F0F6D0F6D0F6F1F612F7F3F615F7B5D7
:1047E000E6D7EEB7E6F0ACD1C5F4E634F7D2E69200
:1047F000DED0CDD3EED2EE52FFAFEE10F70FF70FB3
:10480000F7EFF6EFF6F0F6F1F651D64031A018E0EA
:1048100028EA8B77FFB2C562398018B3C5F8E6B7CE
:10482000E60C8C002920104039ADC5F0F64DE68D20
:10483000EEEBF50BF60BF64CFE4CFE4CFE4CFE4C34
:10484000F66CFE0BEE6CF6CEFECEFE6CF6CEFECE19
:10485000FEADFEADF6AEF6AEF68EF6AEF6AEFECE22
:10486000FECFF6CFF6CFFEEFFEEFFEEFFEEFFE102F
:10487000FFCFF68EEED0F6D0FEF1FE11FFF1FEF185
:10488000FE12FF12FF12FFF1F6F1FE11FF11FF12EF
:10489000FFF1F6F1F6F1F6F0F6F0F6F0F6F0F6F0DC
:1048A000F6F1F6F1F6F1F6F0F610FF31FF6EE6D014
:1048B000F652FF90EE92EEF4F615EFB5E6B6E63559
:1048C000D6801851B5F7E62C94E028C02894E671FC
:1048D000E6B3FFEFEE30F70FF730FFCEEEEFF63234
:1048E000F7D2EE00298010000800080008665AA1DF
:1048F0001840102008E120CB7BD6DEB4DED0C520E6
:104900005280206020C8B48FF64DEEEAF5EBF50B2F
:10491000F62BF64CFE4CFE4CF62BF66CFE8CF6ADF0
:10492000FE8DFE8DF6CEFEADFEAEFE8DF68DF6ADA5
:10493000F6AEF68DF6AEF6AEF6AEF6AEF6AEF6AE78
:10494000F6AEF6CFF6CFFEEFFEEFFED0FECFF6AF1F
:10495000F6AFF6B0F6F1FED1F6D1F6F1FE11FF1189
:10496000FFF1F6F1F6F1FE11FF11FF11FF11FF113A
:10497000FFF0F6F0F6F0F6F0F610F711FF11FFF188
:10498000F6F0F610FF10F751FFF0F68FE6D1EE14B7
:10499000F715F7F4E6F5E6BAFF2D8C0008E641704E
:1049A00094000800080010445A76FFD0EEEFEEEFB6
:1049B000EE0FF7EFF650FFF0EE32F714EF60100055
:1049C00000200820080000200861100000000000FE
:1049D000002008276BF5E672D62FD64BBD67A4CF13
:1049E000F66EEEAFF60BF60BF60BF62BF64BF66CFF
:1049F000FE6CFE0BEEADFE8DF6EFFECFFE4DF64DDE
:104A0000EEAEF68DF66DF66DF68DF6ADF6AEF6AE53
:104A1000F6CEFECEFECFF6AEF6AFF6AFF6AEF6AF02
:104A2000F6CFFECFFECFFEF0FEF0FEAFF6AFF6F013
:104A3000FEF0FEF0FEF0FE10FF10FF10FF11FF1160
:104A4000FF11FF11FF11FF11FF11FF11FF11FFF007
:104A5000F6F0F611FF11FF11FFF1FEF0FE10FF104E
:104A6000F731FF6FE611F733F7667BD5E6276B600A
:104A70001020080000000061080000000042100043
:104A80000820106BA453FF8EE610F70FF70FF7EE18
:104A9000EEF0EED1EE403100000100A41002000261
:104AA000002200200020000000000000000008E0BC
:104AB00028CCAC2CBDE593A06A4CEECDFE8BF62B3A
:104AC000F62BF62BF62BF64BF64BF66CF62BEE8C04
:104AD000F64DF64DF64DEE4DEECFFEAEFEAEF66D5A
:104AE000F68DF6ADF6ADF6AEF6AEF6CEFECEFEAE79
:104AF000F6AFF6AFF6EFFEAEF68EF6AFFECFFECF18
:104B0000FECFFE10FFCFFEAEF6EFFECFFECFF6AF2C
:104B1000F610FF0FFF10FF10FF10FF11FF11FF1124
:104B2000FF11FF11FFF0F6F0F6F0F6F0F611FF11AD
:104B3000FF11FFF1FEF0FE10FF51FF72FF11F7F1C0
:104B4000EE13F7467B4039000820080000000061A2
:104B50000800004000200000000008001040393329
:104B6000F711F751FF0FFF2FFF0FF7EFF632F74165
:104B7000526010E42036A5E5180100010000000095
:104B80000000004008000000084018602061622A10
:104B9000BD8DEE8BF6EDFE6BF62BF62BF62BF62B82
:104BA000F62BF64BF64BF6ADFE4CEEAEFECFFE8E80
:104BB000F68FF6AFFEAEFEAEFE8DF68DF6ADF6AD1F
:104BC000F68DF68DF6AEF6AEF6AEF6AEF6AEF6EFC6
:104BD000FEAEF68DF6AEFEEFFECFFECFFEEFFEAEE2
:104BE000F68DEEAEF6AEF68EEE8DEEEEF6EFF60F3D
:104BF000F710FF10FF10FF11FFF0F6F1F6F1F6F0DD
:104C0000F6F0F6F0F6F0F611FF11FF11FFF1FE10CD
:104C1000FF10FF51FF8EE6F0F653FF13F7E88B20ED
:104C20001043310B6B000041082000800840000059
:104C3000008110811840102B94B1E6D0EEF0F6EF11
:104C4000F6EEF64FFFAEEE53FFF0CDE12075AD2E40
:104C50006B0100A318000040002000200041080064
:104C6000008020201060206DC551FFACF68AF60947
:104C7000E6ABFE2BF62BF62BF62BF64BF64BF64B54
:104C8000F66CF66CF6AEFE4DEE8FF6AFFE0DE6AEB0
:104C9000FE8EF68DF6ADF6AEFEADF66DEE8DF6AE91
:104CA000F6AEF6AEF6AFF6AFF6CFFE8DF68EF6CEDA
:104CB000FEEEFECEF6EEFECEF6ADF68DEECEF6CDE7
:104CC000F6CDF6CDF6CDEECEEEEFF6EFF6F0F6F051
:104CD000F6F0F6F0F6F0F6F0F6F0F6F0F6F0F6F0A4
:104CE000F6F0F611FF11FFF1FE10FF10FF51FF511A
:104CF000FF31FFD1EED2EE099400080008108C2598
:104D0000290000000060002000810800008539B300
:104D1000C577FF32F792FFAFF6CEF6CEF62FFFCE75
:104D2000F611F7F3F60D8C85314D6B00002008006D
:104D30000000000000000000002008AB83645A302F
:104D4000DEF1F66DEE4BEE6AF68AF6AAFE2AEE2B3F
:104D5000F62BF64BF64BF64CF64CF62CF6AEFEE484
:104D6000A3206207A490EED0FEAEF68EF68DF6ADCF
:104D7000F6ADFEADF68CF68DF6AEF6AEF6AFFEAF46
:104D8000F6CFFECEFEADF6ADF6EEFECEFEADF6CE25
:104D9000F6CDF6ADF6ADF60EFF0EFF0EFF2FFFAD12
:104DA000EEADEECEF6EFF6EFF6EFF6F0F6F0F6F14A
:104DB000F6F1F6F0F6F0F610FF10FFF0F6F1FEF166
:104DC000FEF1FE10FF30FF10F731FF10F7F1F65340
:104DD000FF14F7D1C5423100002529000061080009
:104DE00000200000006108000014CE35F7D0E61066
:104DF000F710FFEFFEEFFEEFF631FFB0EE2DB50935
:104E00006B0329410800000000600820002000001A
:104E10000000000008D6EED3EEB0EECEF68CEEAC7D
:104E2000F649EEAAFE69F60AEE2AF62AF609F62BEC
:104E3000F62CF62CF66DFE8EFEEFDD40410010A440
:104E40006271DE8EEE6DEEADF60DFFCCF68BF6AC3C
:104E5000F68CF68DF68EF6AEF6AEF6AEF68CEE8CE1
:104E6000F68CF68CEE8CF6CDF6ADF6ADF6ADF6CD55
:104E7000F60FFF0EFFEEF6EFF6F0F6CFF6CEF6CE1B
:104E8000F6CEEECEF6F0FED0F6F1F6D1F6F0F61153
:104E9000FF10FFEFF671FFD0F6D1FE53FFF0FECD0D
:104EA000EECDEE8DEE8DEEEFF630FF11F733F7F627
:104EB000E663310000000000004008000020000010
:104EC000008010A65A14EFF0EE50F730FFAEEE510E
:104ED000FFD0EE32F7B2E64EB5D8E68118000000FA
:104EE0000000000000000000002000000020081466
:104EF000EF8FE60FF7ACEECCF6ABF649EE69F6694C
:104F0000F629EEACFE0CF60CF66CFECEFE2BEE6D2A
:104F1000F64EEE53E660180008000800312041C646
:104F20009B90F6AFF66EF6CEFE8CF6ADF6ADFEAD0E
:104F3000FE8DF68DF6CEFEADF6EDFEEEFEADF68DF7
:104F4000F6CEF6EEFECEF6AEF6AEF6CEF6CEF6CF58
:104F5000F6F0FEF0FEF0F6EFF6EFF6CEF6EEF6EF38
:104F6000F6CFF6F1F6F1FEF1FE10FFEFF6CEF68D7C
:104F7000EED0FED0FE6EEEAEF62FF7CFEE52FF3241
:104F8000FFD1F6F0F6D2EEF4EEC65A40080000006B
:104F9000000100410862082100200000004010B319
:104FA000E632F791FF30FF30FF8EE631F712F780DF
:104FB00018E24900086010611000006108610801F2
:104FC000000100000061082008A020CCACB0E60F72
:104FD000F7ADEE2AE6CBFE28EE0AFF08EE6BFEECFC
:104FE000F52DF6ABDD6DEE6DEE8FF62EE64C9C00EA
:104FF0001060180010A020A051E7A3B1F6D1FE6EFA
:10500000EECFFE6CEE8CF6ADF6ADF6ADF6ADF6EE8F
:10501000FEADF6CEFECEFEAEF6AEF6EFFEEFFECF66
:10502000FECFF6AFF6CFF6CFF6D0F610FF11FF1198
:10503000FFEFF6EFF6EEF6EFF6EFF6CFF6D0F6F07E
:10504000F6F0F6F0F6CFF6AEEEAEEED0FEF0FECE17
:10505000FE0FFF31F774FF14F7D3EED3F6F2F673B9
:10506000DE71B501210000200800000100000000F1
:1050700000420800002008A020D4E690E64DDECFD4
:10508000F6AEEE30FF11F788A40473D5EE000800E9
:105090000000004108000000002200220000000083
:1050A000000000C120CFACF4F62EDE8EE630FFCC3F
:1050B000FECAF689F60AF62CF6CCF50EEE0DE6B031
:1050C000F6B0F6CDD549A40010000820084031B351
:1050D000E670EE90F68FF66EEE6EF68DF66BEE6B7A
:1050E000F68BF68BF6ACF6CCF6CDFE8DF68EF6AEE4
:1050F000F6AEF6CFFEEFFECFFEF0FEEFFEF0FEF0D6
:10510000FED0FEF0FE11FF31FF11FFEFF6CEF6EFFD
:10511000F60FFF10FFF0FEF0F6F0F6F0FEEFF6EF00
:10512000F6EFF6EFFEEFFEEFFE2FFF0FFF33F7D4A3
:10513000EED6EEF6F653DED0CDEC8B000800000084
:1051400000010801000108010862080000A2100027
:10515000002010B0C532F731FFADEEEFF631FF8F12
:10516000E623734DBDB4E66018611800000000210D
:10517000080000000020004000400800000008C2B5
:1051800028AEAC14F791EE8FEEAEF62EFFAAF64CD9
:10519000FE4DFE2EFE71FE91F60BBD0373C028205E
:1051A000184339201000000EADB2E6F0FE8EF64D29
:1051B000EECEFEAEF66CEE6CF66BF66BEE8BF6ACEE
:1051C000F6ACF68CF68DF66DF66DF68EF6CFFEF03B
:1051D000FEAFF6D0FED0FEF0FEF0FED0F6D0F61117
:1051E000FF31FF31FFEFF6CFF6EFF610FF30FF1083
:1051F000FFF0F6F0F6F0F6EFF6CEF6CEF610FFEF93
:10520000FEEEFECEF6CEF610CEA662A0200010A0D6
:1052100020601800080000200020000000010000AD
:1052200000000000084008000002290008A041D248
:10523000EE11FF0FF7EFF66EE6D0EEC16AAAACF4FE
:10524000EE51B50008000862100000000061000087
:1052500000200040000000641801084018003121BF
:105260005AC68B52FF0BDE8CEE6CFECAED0DFEECC7
:10527000C4678B003120100031ACA4000800084046
:1052800010F2C550DEADEE4CE6ADF60EFFADF66C9D
:10529000EE8CF68CF68CF68DF68DF6ADF6ADF6AEA0
:1052A000F68EF68EF68DF6AEF6CFFEAFF6CFFECFCB
:1052B000FED0FECFF6AFF6CFF6F0FE11FF31FFCFF6
:1052C000F6CFF6EFF610FF10FFF0FECFF6F0F6F097
:1052D000F6CFF6CEF6CEF60FFFCEF6EEFE8CEEEF64
:1052E000F60673201040100008401020310008001E
:1052F0000000002100010022080000000080106072
:1053000010200897DE08738020C68B31FF0FFF8CBA
:10531000EEEFF610FFC06AA26A92E638F7096B203A
:1053200008000000002008000000002000600801C4
:10533000002308010000080010C562667BC6932F99
:10534000DEB0EE2AFE2BFEECF50028402040396846
:105350007BD1CDF2CD2008000800008A7BD4EECEB0
:10536000F6ADEEADF6CDF6CDFEACF68CF6ADF6CEE6
:10537000FECEFEAEF6AEF6EFFECEFECEFEAEF68D65
:10538000F66DF6CFF6CFF6F0FEF0FEF0FECFFECFD4
:10539000F6F0F611FFF0FE10FFEFF6EFF610FF103B
:1053A000FF10FF10FF10FF30FF30FFEFF6CFF6CEFB
:1053B000F60FFFADF60EFF6CE631FF20100008007F
:1053C0000880184B9436EF000021000000210000F7
:1053D000000000C120497391BD00290008B7E634E0
:1053E000D6B0CD60206BC50FFFCDF60EFFCEEE4DD3
:1053F000E684832010B6E651BD6018A0204010005E
:105400000000006108000000000000010022080008
:10541000086018401053DE2018257B92EE6AFEA823
:10542000E52BF62FE630DE92DE32CEE24920108206
:105430001841102110000820186EC5F2F64EE6EF54
:10544000F68CEE0DFFABF6ACF6ADF6AEF6AEF6AF03
:10545000F6CFFEEFFEAEF6CEFECEFEADF6EEFECE03
:10546000F6CEFEEFFE0FFF0FFF0FFF0FFFEEF60F62
:10547000FFEFF6CFF6CFF6F0F610FF10FF0FFFEFBD
:10548000F60FFF10FF10FFF0FEEFF68DEEEEFECEF2
:10549000F6AEEEF2F620100008601011CE54EF5276
:1054A000EFC65A0000000041082008000832D690DC
:1054B000DE72FF31EF6FD683620994ECB44CC54EB7
:1054C000E6CEF60EFF0EFFEEF6CEEEAFEE8FE61452
:1054D000F72A94A02054DEF7EEB2C5000040080081
:1054E00000A310200081100000000060100008538D
:1054F000CE90C58020834109EEACFE2BF690F6D20B
:10550000EE72DE066B60180008E3280000A220009F
:10551000108020C03033DE35FFF1F6AACDEDF6CB9A
:10552000F6ABF6ABF6ACF6ADF6CEFECEFE2FFFEE4A
:10553000FECEFECDFE8DF6CEF6CEF6ADF6CEF6EE76
:10554000FEEEFE0FFFEEF6CEF6ADEECEEE10FF3025
:10555000FF10FFF0F6CFF6EFF6EFF60FFFEFF6F0E5
:10556000FE10FF10FF6CEEEEFE2FFFCFF6D1EE40E7
:10557000100008801814EF32EF10E74FAD2008003C
:1055800000400800006018D2EE51F770F7EFEECF40
:10559000E60BB50010C03012FF10FFCEF60EFF0E66
:1055A000FFADEE8DE6CEEE30FF54FF72E660186779
:1055B0007B90C552D6A762200800000000474A2011
:1055C000002000000020082129D6DE30B500102080
:1055D000188CFE88DDE9ED8CD50CBD425A401000D8
:1055E000108B832010001026524D9C00102018A014
:1055F0002848836EC5A16A4DE6EDF6ECF6CCF6CCF4
:10560000F6CDFEEEFEEFFE0FFFCEFECDFEADF68C2C
:10561000F6CEF6ADF6ADF6ADF6ADEE8DEEADF6CE60
:10562000F6CDF6EEF6CDF6AEEEAFF6F0F610FF10D4
:10563000FFEFF60FF7EFF60FFFF0FEF1FE10FFAEF3
:10564000EECEF60FFF0FFFD0EE6139801881399151
:10565000DE10EFADDEB3DEC01840080000601003BE
:1056600052F1F670FF0DF72EF70FF74FDE90E6E2DE
:10567000728FE6CFF6AEF6EEF6EEF6EEF6ADEEADE6
:10568000EEAEEED0EE54FF50DE80200031F3EEF1AE
:10569000CDA0206018401077D600214008400800B7
:1056A000004B7356D6C44100086120C8E58CFEEA61
:1056B000ED8372001800188020A46A74E600106060
:1056C00018A662B5E623528020000800106020E092
:1056D00030CFD5CFF6CEF6EDFECDFECDFECEFEF030
:1056E000FE8DF66DEE8DF6AEF6ADF60FFF0FFFEF09
:1056F000FEEFFECEF68DEEADF6ADEEADEE8CEEAD80
:10570000EE0FFF10FFF0FECFF6AEEEEFF6EEF60F67
:10571000F710FF10FF11FFF1FEEFFE8DEECEF63019
:10572000FFF0F64773E028687B90DE10EF0EEFF392
:10573000EEC020444A8010076BD4EE31FFCDEE0D51
:10574000F70DF7EDEE11F773FF11F704948EEE8D60
:10575000EE0EFF0EF72EFF2EFF0EF78DE6F0F6523F
:10576000FFD0EE6FDEE17212F7F2EE10CEC0200035
:10577000104D94F4C5E12000002008C95A8C7B200C
:1057800010601845396BF66CF62CEEA038002060DE
:1057900020C46A51DE73E620184010445272DEB312
:1057A000E620106018802000100018204170EE8E56
:1057B000EEADF6ACF68CF68CF68EF6AEF68DF6AE59
:1057C000F6CEFECEFE0FFFEFFEEFFEEFFEEFFEEF9A
:1057D000FEEFFEEFF6CEF68CE6CDEE50FF51FF1059
:1057E000FFCFF68EEECEF6CEF6EFF610FF31FF11BC
:1057F000FFF1FE31FFAEF6ADEE0EFF0FF7ABA4C02A
:10580000202EB532F7EFEE90FF92E6C0282A8CB436
:10581000DE677B2DB5CFF6EDF64AE62EFF4FFF5241
:10582000FFD0EED0EE30FF89CD8EEE2FFF0EF70DBC
:10583000F72EFF0EF7AEEEEFF610F710F771FF51EF
:10584000FFD0EE31F790DE31D68039C020B7DE15BB
:10585000C66010200800004010601000082B73A9DB
:10586000DD2BEE0DEE216A6028047B2FDE50E693DF
:10587000EE00106018645A55FF91DECA9CE1414069
:105880001040186020001071EE6FEE8DEE8CF68CDB
:10589000F68CF66DEEEFFECEFEEFFEEFFECEFEEFE7
:1058A000FEAEF6AEF6CEF6CEF6EFFE0FFF0FFF0E13
:1058B000FF4EFF0DFF8DEEAEEECFF610FF30FFEF87
:1058C000F6EEF60FF7EFF6F0F6F1FEF2FE32FF100D
:1058D000FFEEF6ACEE0EF78DBD4018F0CD12F7CF0F
:1058E000EE0FF7B3EEE572098CF5E672DEC0490CF7
:1058F000E6ACF62EFF6BE6ADEED0F611F751FFAD3C
:10590000E6CDEEEFF630FF0FF7EEF60EF7EDF6AC64
:10591000EE0FFF30FF30FF6DE68EEEB2FF51FFB0AD
:10592000E6D3EE435AE3490A6B20080000611020D9
:105930000800000008201035D60BF60BF62CF62DCB
:10594000F64EF66EF68EF64EEE90F6604940282042
:105950006290EE6FE62FFF6DE6AFEE0EDE4062EA7C
:10596000BC8EF6CFF6CFF6F0FECFFECFF6CDF6EE3C
:10597000FEADFECDF6EEFECEFECEF60FFF0FF70F1C
:10598000F70FF7CDF6ADEEEEF60FFFEFF6CFF631EF
:10599000FF10FFAFEEAFEE10FF10FF31FFCFF6CFDD
:1059A000F6F0F6F0F6AFEE10FF30FFEFF6CFF610A0
:1059B000F74EDE67A4D0EE93FFEFF6EEEE8EEE8F9D
:1059C000E6657B2CB5E68B8FE6EEF6CDF6EDF65070
:1059D000FF10FF10FF30FF30FF2FFF4FFF0FFFCEF4
:1059E000F60EF7EEF6CDF6CDF60FFF0FFF10FF1017
:1059F000FF11F7F1F611F7CEC5A35A12CEC24140FE
:105A000010000820082010423180204039A68B6FFA
:105A1000E6D0EE0BF60BF62BF62CF64CF66DFE6E82
:105A2000F66EFE4EF6C8BC26ACA8BC90F66EEE8CA8
:105A3000EE0EFF8DF6AEF62CE66DEE0FFFEEFE8E4F
:105A4000F6D0FE32FFB0F68DEEEEFEEEFECEFEADEF
:105A5000F68DEE0FFF70FF2FF72FFF2FFFEEF6CE24
:105A6000F6CEF6EFF6F0FEF0F651FF31FFCFF6CFAF
:105A7000F610FF31FF30FFF0F6F0F630FF30FFEFA9
:105A8000F6AEF6EFF610FF10FF10F7B0EEF0F6529C
:105A9000FF10F7CFEE30FFEEF671FF6DBDE36A90B9
:105AA000E6AFE6EDF6ACEE4FFFEFFECFF6F0F6F028
:105AB000F6EEEE0EF70EF7EEF6CDF6EEF60EF7CDAD
:105AC000F6EEF60FFF51FFEFF68EE6F0F652FF2EE0
:105AD000DEE04972D643526010A65A4652C02021D9
